{
  "contractName": "EldogeToken",
  "abi": [
    {
      "inputs": [
        {
          "internalType": "uint256",
          "name": "_initialSupply",
          "type": "uint256"
        }
      ],
      "payable": false,
      "stateMutability": "nonpayable",
      "type": "constructor"
    },
    {
      "constant": true,
      "inputs": [],
      "name": "totalSupply",
      "outputs": [
        {
          "internalType": "uint256",
          "name": "",
          "type": "uint256"
        }
      ],
      "payable": false,
      "stateMutability": "view",
      "type": "function"
    }
  ],
  "bytecode": "0x608060405234801561001057600080fd5b506040516100de3803806100de8339818101604052602081101561003357600080fd5b8101908080519060200190929190505050806000819055505060848061005a6000396000f3fe6080604052348015600f57600080fd5b506004361060285760003560e01c806318160ddd14602d575b600080fd5b60336049565b6040518082815260200191505060405180910390f35b6000548156fea265627a7a72315820e5fc06ee5b5880ca1fec280d37314ff75e57d69450578d4b6a92c99bd288710f64736f6c63430005100032",
  "source": "pragma solidity ^0.5.16;\r\n\r\ncontract EldogeToken {\r\n\t// Constructor\r\n\t// Sets the total number of tokens\r\n\t// Read the total number of tokens\r\n\r\n\t// state variable that writes to storage(blockchain)\r\n\t// so will be publicly visible\r\n\t// uint256 is unsigned integer\r\n\t// solidity provides getter function already because of\r\n\t// public declaration of state variable\r\n\tuint256 public totalSupply;\r\n\t\r\n\t// constructor() public {\r\n\t// \ttotalSupply = 100000000;\r\n\t// }\r\n\r\n\r\n\t// Constructor\r\n\tconstructor (uint256 _initialSupply) public {\r\n\t\t// state variable that writes to storage(blockchain)\r\n\t\ttotalSupply = _initialSupply;\r\n\t}\r\n}\r\n",
  "sourcePath": "C:\\Users\\eldri\\token_sale\\contracts\\EldogeToken.sol",
  "compiler": {
    "name": "solc",
    "version": "0.5.16+commit.9c3226ce.Emscripten.clang"
  },
  "schemaVersion": "3.4.9",
  "updatedAt": "2022-08-29T17:11:24.442Z",
  "networkType": "ethereum",
  "devdoc": {
    "methods": {}
  },
  "userdoc": {
    "methods": {}
  }
}