{
  "contractName": "EldogeToken",
  "abi": [
    {
      "inputs": [
        {
          "internalType": "uint256",
          "name": "_initialSupply",
          "type": "uint256"
        }
      ],
      "payable": false,
      "stateMutability": "nonpayable",
      "type": "constructor"
    },
    {
      "constant": true,
      "inputs": [
        {
          "internalType": "address",
          "name": "",
          "type": "address"
        }
      ],
      "name": "balanceOf",
      "outputs": [
        {
          "internalType": "uint256",
          "name": "",
          "type": "uint256"
        }
      ],
      "payable": false,
      "stateMutability": "view",
      "type": "function"
    },
    {
      "constant": true,
      "inputs": [],
      "name": "totalSupply",
      "outputs": [
        {
          "internalType": "uint256",
          "name": "",
          "type": "uint256"
        }
      ],
      "payable": false,
      "stateMutability": "view",
      "type": "function"
    }
  ],
  "bytecode": "0x608060405234801561001057600080fd5b506040516101993803806101998339818101604052602081101561003357600080fd5b810190808051906020019092919050505080600160003373ffffffffffffffffffffffffffffffffffffffff1673ffffffffffffffffffffffffffffffffffffffff16815260200190815260200160002081905550806000819055505060fb8061009e6000396000f3fe6080604052348015600f57600080fd5b506004361060325760003560e01c806318160ddd14603757806370a08231146053575b600080fd5b603d60a8565b6040518082815260200191505060405180910390f35b609260048036036020811015606757600080fd5b81019080803573ffffffffffffffffffffffffffffffffffffffff16906020019092919050505060ae565b6040518082815260200191505060405180910390f35b60005481565b6001602052806000526040600020600091509050548156fea265627a7a7231582036bcad2e3a70673428830626844d2004054b061c5d6b69915c48f2ccce241fbd64736f6c63430005100032",
  "source": "pragma solidity ^0.5.16;\r\n\r\n//this contract is responsible for knowing where each token is\r\ncontract EldogeToken {\r\n\t// Name\r\n\t// Symbol\r\n\r\n\t// state variable that writes to storage(blockchain)\r\n\t// so will be publicly visible\r\n\t// uint256 is unsigned integer\r\n\t// solidity provides getter function already because of\r\n\t// public declaration of state variable\r\n\tuint256 public totalSupply;\r\n\t\r\n\t// takes the address of the owner and returns\r\n\t// returns an unsigned integer - the balance of the address\r\n\t// this function is primarily responsible for knowing who has each token\r\n\tmapping(address => uint256) public balanceOf;\r\n\r\n \t// Constructor\r\n\t// Sets the total number of tokens\r\n\t// Read the total number of tokens\r\n\tconstructor (uint256 _initialSupply) public {\r\n\t\tbalanceOf[msg.sender] = _initialSupply;\r\n\r\n\t\t// state variable that writes to storage(blockchain)\r\n\t\t// value passed from the migrations file \"1_deploy_contracts.js\" is set as \r\n\t\t// the value of total supply\r\n\t\ttotalSupply = _initialSupply;\r\n\t}\r\n}\r\n",
  "sourcePath": "C:\\Users\\eldri\\token_sale\\contracts\\EldogeToken.sol",
  "compiler": {
    "name": "solc",
    "version": "0.5.16+commit.9c3226ce.Emscripten.clang"
  },
  "schemaVersion": "3.4.9",
  "updatedAt": "2022-09-02T14:32:54.715Z",
  "networkType": "ethereum",
  "devdoc": {
    "methods": {}
  },
  "userdoc": {
    "methods": {}
  }
}